:020000040000FA
:020000000328D3
:040002000034003492
:0A00060007309F000313831600303B
:100010008600831200000614122006103120000012
:1000200000000B282530B400B40B142800002D303C
:10003000B0000330B300B30B1B283830B100000010
:1000400000000000000000003A30B200B20B262889
:10005000B10B1F28B00B19281E30B100B10B2E2890
:1000600008003330A000A00B332800003330A50077
:100070002430A100A10B3A283930A2000000000072
:100080000000000000003A30A300A30B4528A20B9B
:100090003E28A50B38281E30A200A20B4D280800D0
:02400E00193F58
:00000001FF
